:03000000020217E2
:0C021700787FE4F6D8FD75817E02025E5F
:10047C003C123030302B30303D2B303D3D2B2D3D60
:10048C003D302D2D303030302B30303D2B2B3D3D41
:10049C003D2D3D2D302D30303030302B2B303D3D2F
:0804AC002B3D3D3D2D2D2D30AF
:1004B40001210052005E0000000000FF000000FF68
:1004C40000FF00FF00FF00000122004200000000C6
:0804D40001230042005C00005E
:10013F00E4FEEEC3941E748094804003020216E422
:10014F00FDEDC39403748094804003020212ED14FA
:10015F0060101460162402701CEE75F003A42425A1
:10016F008010EE75F003A424248007EE75F003A42D
:10017F002426F8E6FFEF339207EFA2E69206A2E5F8
:10018F009205A2E49204A2E39203A2E29202A2E1F8
:10019F009201139200C293300704D2938002C2934C
:1001AF00D293C293300604D2938002C293D293C2E9
:1001BF0093300504D2938002C293D293C29330043A
:1001CF0004D2938002C293D293C293300304D2938A
:1001DF008002C293D293C293300204D2938002C2A0
:1001EF0093D293C293300104D2938002C293D293DD
:1001FF00C293300004D2938002C293D293C2930D64
:07020F000201500E02014143
:0102160022C5
:1004DD000521E52124CE600B1460042432700BC27B
:1004ED00938007C2AF12013FD2AFE52175F03C8476
:0304FD0085F02166
:0105000022D8
:0B050100EF1FAC0670011E4C70F622CC
:0403D6008E088F09F5
:1003DA000522E522643C7049FFEFC3941E748094A1
:1003EA0080503EE4FEEEF582758300C39403748068
:1003FA009480502AE582700DEF75F003A424242E10
:10040A00F8A6098016EE64017004A9058002A90302
:10041A00EF75F003A424242EF8A6010E80C70F80DE
:04042A00B80204DD33
:040003008E088F09CB
:10000700E4F50AF50BF512FC7D3C1203758E0E8F95
:100017000F90047DE493FFC3E50F9FE50E94004026
:100027000302013EAE08AF097C007D3C1203758CCC
:100037000C8D0DE4F508F509F50CF50DE4F510F553
:100047001190047E75F003E50F1203CAE50E75F0F3
:1000570003A42583F583E5822511F582E583351011
:10006700F583E49324D5607324FE604A24F0602668
:10007700240D6003020100E51275F003A42402F5C4
:1000870082E43400F583E5822511F582E583351096
:10009700F583E4F08063E51275F003A42402F5828A
:1000A700E43400F583E5822511F582E5833510F503
:1000B70083743CF08043C3743B950DFFE51275F0E4
:1000C70003A42402F582E43400F583E5822511F5C3
:1000D70082E5833510F583EFF0801EE51275F00396
:1000E700A42402F582E43400F583E5822511F58224
:1000F700E5833510F583E50DF00511E5117002056F
:10010700106403451060030200480512E512643CC1
:100117006011050DE50D7002050C643C450C60038C
:10012700020043E512643C600E050FE50F60030211
:070137000018050E0200187C
:01013E00229E
:1002A3000523D3E523942874809480405FE4F523E9
:1002B300FFEFC3941E748094805051EF75F003A434
:1002C3002402F582E43400F583E0FEEF75F003A425
:1002D3002424F8A606EF75F003A42403F582E4347E
:1002E30000F583E0FEEF75F003A42425F8A606EFDE
:1002F30075F003A42404F582E43400F583E0FEEFF3
:0F03030075F003A42426F8A6060F80A50204DDDA
:10031200E4FBFA20A25C7FE87E0312050120A252D0
:10032200C2923094433090400BBB00010AD3EB944D
:1003320008EA9402402DE4FAFB900001E004F07018
:1003420006900000E004F0900000E0FEA3E0FF7CD5
:10035200047D38120375900000ECF0FEA3EDF0FF6F
:100362001200031202A380C0E4FBFAFDFCFFFE129E
:0203720003D6B0
:010374002266
:10042E0020A1187FE87E0312050120A102057EE5BA
:10043E007E64047003757E0130A1FDE57E24FE60AE
:10044E000C14600E2402702190005E8008900064EF
:10045E00800390006AE0FEA3E0FFA3E0FCA3E0FDB2
:0E046E00A3E0FAA3E0FB1203D612031280B241
:1002230002042EE493A3F8E493A34003F68001F2BF
:1002330008DFF48029E493A3F85407240CC8C333DC
:10024300C4540F4420C8834004F456800146F6DFAB
:10025300E4800B01020408102040809004B4E47E83
:10026300019360BCA3FF543F30E509541FFEE493A0
:10027300A360010ECF54C025E060A840B8E493A367
:10028300FAE493A3F8E493A3C8C582C8CAC583CA92
:10029300F0A3C8C582C8CAC583CADFE9DEE780BE4A
:0104DC00001F
:10037500BC000BBE0029EF8DF084FFADF022E4CC6C
:10038500F875F008EF2FFFEE33FEEC33FCEE9DEC35
:10039500984005FCEE9DFE0FD5F0E9E4CEFD22ED7B
:1003A500F8F5F0EE8420D21CFEADF075F008EF2FC5
:1003B500FFED33FD4007985006D5F0F222C398FDB6
:0503C5000FD5F0EA2253
:0C03CA00A42582F582E5F03583F583223E
:00000001FF
